:020000040800F2
:1000000088060020910100082D0E0008E10C000870
:100010002B0E0008CB040008890E00080000000029
:10002000000000000000000000000000310E000889
:10003000CD040008000000002F0E0008330E000859
:10004000AB010008AB010008AB010008AB010008E0
:10005000AB010008AB010008AB010008AB010008D0
:10006000AB010008AB010008AB010008AB010008C0
:10007000AB010008AB010008AB010008AB010008B0
:10008000AB010008AB010008AB010008AB010008A0
:10009000AB010008AB010008AB010008AB01000890
:1000A000AB010008AB010008AB010008AB01000880
:1000B000AB010008AB010008AB010008AB01000870
:1000C000AB010008AB010008AB010008AB01000860
:1000D000AB010008AB010008AB010008AB01000850
:1000E000AB010008AB010008AB01000800F002F80A
:1000F00000F03FF80AA090E8000C82448344AAF183
:100100000107DA4501D100F034F8AFF2090EBAE880
:100110000F0013F0010F18BFFB1A43F0010318473B
:10012000840E0000A40E0000103A24BF78C878C1E5
:10013000FAD8520724BF30C830C144BF04680C60ED
:10014000704700000023002400250026103A28BF35
:1001500078C1FBD8520728BF30C148BF0B60704739
:10016000642900F07D80002070471FB51FBD10B5C9
:1001700010BD00F070F91146FFF7F7FF00F0F2FE36
:1001800000F08EF903B4FFF7F2FF03BC00F096F91C
:100190000948804709480047FEE7FEE7FEE7FEE71B
:1001A000FEE7FEE7FEE7FEE7FEE7FEE70448054957
:1001B000054A064B70470000870E0008ED00000856
:1001C0008800002088060020880200208802002085
:1001D0000FB41CB5074B06AA7B44694600900598EE
:1001E00000F021F90020694600F030F91CBC5DF8F0
:1001F00014FB0000710200002DE9F0410E46044698
:10020000002020622046E168884730B3252805D0C9
:10021000D4E901219047206A401CF2E7E1682046BA
:1002200000278847050018D0A5F14100192802D8F9
:1002300020354FF400673246294620462760FFF7F5
:100240008FFF40B1012804D0F61D26F007060836BE
:10025000D8E7361DD6E72846DAE7206ABDE8F08100
:100260002DE9F0410646002410687529314616A58F
:1002700010D0AFF30080002802DA404213A507E057
:1002800031688A0701D512A502E0490704D511A5F6
:10029000012401E0AFF3008000210A2206F12407C7
:1002A00009E0B0FBF2FCB0FBF2F302FB1C003030C3
:1002B00078541846491C0028F3D123462A46304674
:1002C000BDE8F04100F051B8000000002D00000032
:1002D0002B0000002000000010B5431C02E010F8C5
:1002E000011B71B18107FAD14FF0013202C88C1A9B
:1002F0008C4314EAC211F9D0C01A0A0603D0C01EFA
:1003000010BDC01A10BD0A0401D0801E10BD090224
:10031000FCD0401E10BD4FF0000200B513469446BD
:100320009646203922BFA0E80C50A0E80C50B1F14D
:100330002001BFF4F7AF090728BFA0E80C5048BF61
:100340000CC05DF804EB890028BF40F8042B08BFFF
:10035000704748BF20F8022B11F0804F18BF00F8FB
:10036000012B70477047704770472DE9F0470D46E5
:1003700099469246044600F124080168880604D58F
:10038000E06921F01001216000E00120A84201DDB8
:10039000471B00E00027A1697A1902EB0900081A3F
:1003A000A0612078C00602D42046AFF3008000266A
:1003B00008E0D4E901211AF806009047206A401CA1
:1003C000761C20624E45F4DB2078C0060AD5204614
:1003D000AFF3008006E0D4E9012130209047206A85
:1003E000401C2062381EA7F10107F4DC07E0D4E9C5
:1003F000012118F805009047206A401C2062281E41
:10040000A5F10105F3DC2046AFF30080207800065B
:1004100002D50220BDE8F0870120FBE701694A1CF4
:1004200002610878704700B58FB0CDE90131002135
:10043000059105497944CDE9031011466846FFF757
:10044000DBFE0FB000BD0000E5FFFFFF0A6802F809
:10045000010B0A607047754600F02CF8AE460500A7
:100460006946534620F00700854618B020B5FFF7CF
:100470009DFEBDE820404FF000064FF000074FF012
:1004800000084FF0000B21F00701AC46ACE8C009B2
:10049000ACE8C009ACE8C009ACE8C0098D467047BB
:1004A00010B50446AFF300802046BDE81040FFF7CA
:1004B00069BE00000048704728000020014918204C
:1004C000ABBEFEE7260002007047FEE77047000063
:1004D00070B5044600F004F90546601C02D00448DB
:1004E0000078044400F0FCF8401BA042FAD370BD31
:1004F000180000202DE9F84FDFF8B891002409F129
:10050000040A0AF1040B23460F270BF1040EC9E07D
:100510000125A5402A40AA427DD1674ED1F804C0EA
:10052000ACEB0608B44532D014DCBCF1030F3AD072
:1005300009DCBCF1000F2AD0BCF1010F1CD0BCF1CA
:10054000020F31D11DE0BCF1110F17D0BCF1120F19
:100550002AD119E0B8F5881F19D006DCB8F5803F1C
:1005600015D0B8F5801F1FD111E0B8F5001F0ED0CF
:10057000B8F5041F18D10AE0CB6815E0CB681B1D45
:1005800012E0CB6808330FE0CB680C330CE08B68CB
:100590002BB1012B4FF0080303D0456104E0042385
:1005A00002E0056100E00023FF2A01D8064601E0D1
:1005B00000F104064FEA840501D9A5F12005D6F81B
:1005C000008007FA05FC28EA0C0803FA05F548EA5A
:1005D0000508C6F800804D68ED0062D5374DAE695C
:1005E00046F00106AE61AD6924F0030605F0010591
:1005F0000095334D06EB050CDCF80850A607360FC6
:1006000007FA06F825EA0805DFF8B880404503D167
:100610004FF0000817E044E0DFF8AC80404502D11D
:100620004FF001080FE0DFF8A480404502D14FF001
:10063000020808E0DFF89880404502D14FF0030837
:1006400001E04FF0040808FA06F848EA0508CCF87B
:1006500008804D68D9F80060ED034D4601D516437A
:1006600000E096432E604D68DAF80060AD03554611
:1006700001D5164300E096432E604D68DBF800601C
:10068000ED025D4601D5164300E096432E604D68AD
:10069000DEF80060AD02754601D5164300E09643D2
:1006A0002E60641C0D682A46E5407FF431AFBDE83A
:1006B000F88F0000000401400000111000100240FB
:1006C0000000014000080140000C01400010014002
:1006D000001401400AB1016170470904FBE7000002
:1006E00001488068704700001800002002488168B7
:1006F000027811448160704718000020074810B547
:10070000016841F010010160032000F067F80F203C
:1007100000F006F800F024F8002010BD0020024090
:1007200070B50D4D04464FF47A712878B1FBF0F0A6
:100730000A490968B1FBF0F000F0BEFA48B9102C84
:1007400007D200222146501E00F028F800206C60DD
:1007500070BD012070BD00001800002024000020A2
:100760000C4808B5816941F001018161816901F09E
:1007700001010091C16941F08051C161C06900F07F
:10078000805000900448416821F0E06141F0007120
:10079000416008BD0010024000000140F0B40E4B63
:1007A0001B680C46C3F30223C3F10705042D00D9CF
:1007B0000425191D072901D2002300E0DB1E0126B4
:1007C00006FA05F1491E214099409E40761E1640CA
:1007D0003143F0BC00F059BB0CED00E0064900F0DD
:1007E000070208684FF6FF03184040EA0220034A58
:1007F00010430860704700000CED00E00000FA05AF
:100800002DE9F0470F46050061D0434E306800F0F7
:100810000700B84209D2306820F007003843306042
:10082000306800F00700B84251D128683B4C81077E
:1008300012D5400703D5606840F4E0606060287816
:10084000000703D5606840F4605060606068A96884
:1008500020F0F000084360602878C00728D068685E
:10086000012810D02168022810D0890700292EDA2B
:10087000616821F0030101436160FFF731FF8046A9
:1008800041F288390DE021688903EFE78901EDE73E
:10089000FFF726FFA0EB0801494502D90320BDE878
:1008A000F0876068696800F00C00B0EB810FEFD151
:1008B000306800F00700B8420BD9306820F007001C
:1008C00038433060306800F00700B84201D00120A2
:1008D000E5E72878400705D56068E96820F4E0601E
:1008E000084360602878000706D56068296920F40D
:1008F000605040EAC100606000F018F86168084A82
:10090000C1F30311515CC8400649086006480068FD
:10091000FFF706FF0020C2E700200240001002405F
:10092000940F0008240000201C00002012A185B0B4
:100930000FC98DE80F0014A0144A00680490516894
:10094000134801F00C03042B10D0082B0ED1C1F377
:100950008343C9031DF803000AD5516804AAC1F3F3
:100960004041515C0A4A5043B0FBF1F005B070477A
:1009700008494843FAE7000002030405060708098E
:100980000A0B0C0D0E0F10100102000000100240A7
:1009900000127A0000093D002DE9F84F040070D0E4
:1009A0002078C04DC00749D06868C0F38100012895
:1009B00007D06868C0F38100022809D16868C003C5
:1009C00006D52868800339D560680028E7D035E06F
:1009D0006068B0F5803F0BD010B1B0F5A02F11D0FA
:1009E000286820F480302860286820F4802002E005
:1009F000286840F480302860606890B1FFF770FE8E
:100A000006460AE0286840F480202860F0E700BF2E
:100A1000FFF766FE801B642873D828688003F7D52B
:100A20000CE0FFF75DFE064605E000BFFFF758FE4D
:100A3000801B6428F0D828688003F7D420789A4E69
:100A400080074FF001094FF0000839D5686810F0B1
:100A50000C0F07D06868C0F38100022809D16868CC
:100A6000C00306D42868800714D52069012808D15E
:100A700010E02069B0B1C6F80090FFF731FE0746DC
:100A800005E00AE1FFF72CFEC01B0228C4D8286845
:100A90008007F7D52868616920F0F80040EAC100B6
:100AA00028600DE0C6F80080FFF71AFE074604E054
:100AB000FFF716FEC01B022823D828688007F7D44A
:100AC000207800072CD57948A169D9B1C0F80090E9
:100AD000FFF706FE074604E0FFF702FEC01B0228F0
:100AE0000FD8686A8007F7D571484FF4FA5100684B
:100AF000B0FBF1F0009000BF0098411E0091FAD2C7
:100B00000EE080E0C0F80080FFF7EAFD074604E051
:100B1000FFF7E6FDC01B022875D8686A8007F7D486
:100B20002078400760D5E8690027C00008D4E8694C
:100B300040F08050E861E869012700F080500090A3
:100B40005C480168C90513D40168834641F480718B
:100B50000160FFF7C5FD824606E000BFFFF7C0FD5C
:100B6000A0EB0A0064284ED8DBF80000C005F5D5DC
:100B7000E06801280AD008B1052813D0286A20F0BF
:100B800001002862286A20F0040002E0286A40F090
:100B900001002862E06841F2883B98B1FFF7A0FDB0
:100BA00082460BE0286A40F004002862EEE700BFAE
:100BB000FFF796FDA0EB0A0159455AD8286A80072D
:100BC000F6D50CE0FFF78CFD824605E0FFF788FDC7
:100BD000A0EB0A0159454CD8286A8007F6D41FB10A
:100BE000E86920F08050E861E06988B36968C1F382
:100BF0008101022944D00228C6F8608004D0FFF7A2
:100C00006FFD044638E034E0FFF76AFD074604E074
:100C1000FFF766FDC01B02282BD828688001F7D497
:100C2000206AB0F5803F05D16868A16820F40030E3
:100C300008436860D4E908010843696821F4741125
:100C400008436860C6F86090FFF74AFD044606E076
:100C500025E000BFFFF744FD001B022809D82868E3
:100C60008001F7D51BE000BFFFF73AFD001B02280B
:100C700002D90320BDE8F88F28688001F4D40EE083
:100C80000128F7D06868226A00F48031914204D1CB
:100C9000616A00F47010884201D00120EAE7002068
:100CA000E8E7000000100240000042428004424297
:100CB000240000200070004010B5401EB0F1807F7D
:100CC00001D3012010BD4FF0E02460610F216017B7
:100CD00000F0DBF80020A06107202061002010BD9B
:100CE000FEE710B500F014F8332000F011F93220BF
:100CF00000F00EF9282000F00BF9012000F008F9AF
:100D00000C2000F005F9BDE81040062000F000B905
:100D10002DE9F04786B0344800240294816941F0FF
:100D200004018161816901F004010491816941F04C
:100D300008018161816901F008010491816941F034
:100D4000100181618069032600F01000CDE9036085
:100D50004FF480480125DFF894A0CDE9008569466D
:100D60005046FFF7C7FB4FF40049CDF800900396BB
:100D7000CDE9015469465046FFF7BCFB6F0300976D
:100D80000396CDE9015469465046FFF7B3FB0022B4
:100D900039465046FFF79EFC2803CDE90005DFF8F1
:100DA00050A0CDE9024669465046FFF7A3FB0097E5
:100DB0000396CDE9015469465046FFF79BFBCDF8F9
:100DC00000800396CDE9015469465046FFF792FB37
:100DD000CDF800900396CDE9015469465046FFF7DF
:100DE00089FB06B0BDE8F08700100240001001400A
:100DF000000C01400EB5024603A16846FFF7E8F972
:100E0000684600F003F80EBD2564000070B5054685
:100E1000002404E0285D00F091F8641CE4B2284648
:100E2000FFF75AFAA042F5D870BDFEE7FEE770471B
:100E30007047FFF75BBC10B590B028216846FFF7FC
:100E40006AFA14210AA8FFF766FA0220009001202E
:100E5000049010200024059007946846FFF79CFD3D
:100E600008B172B6FEE70F20CDE90A040C940D9488
:100E700000210AA80E94FFF7C3FC002801D072B627
:100E8000FEE710B010BD7047FEE70907090E002805
:100E900004DB00F1E02080F80014704700F00F0040
:100EA00000F1E02080F8141D704700002DE9F041AA
:100EB000154D0F468046002405F108060EE000BFE0
:100EC00028FA04F0C00735F8141056F8240018D09A
:100ED0005FF00102FFF7FEFB641CE4B2BC42EFD3FB
:100EE00001220A4DD40321462846FFF7F3FB0120D7
:100EF000FFF7EEFA21462846BDE8F0410022FFF751
:100F0000E9BB0022E6E700000000002000100140DD
:100F100010B5044600224FF480410748FFF7DAFB82
:100F200020090421FFF7C2FF04F00F00BDE81040C4
:100F30000421FFF7BBBF00000010014010B50446BC
:100F4000012291030648FFF7C5FB20090421FFF7A2
:100F5000ADFF04F00F00BDE810400421FFF7A6BF6D
:100F60000010014008B5FFF7C9FBFFF7BAFEFFF715
:100F700062FF0748816941F004018161806900F0E6
:100F8000040000904FF47A70FFF734FFFEE7000092
:100F900000100240000000000000000001020304F5
:100FA00006070809C40F0008000000202800000000
:100FB00028010008EC0F000828000020600600004F
:100FC000440100080010002000400080000C014097
:100FD000000C0140000C0140000C01400100000029
:0C0FE00010000000000000000024F400DD
:04000005080000ED02
:00000001FF
