:020000040800F2
:10000000600800209101000843140008C313000891
:10001000411400088F040008ED17000800000000DC
:100020000000000000000000000000005B16000857
:100030009104000800000000451400085D16000847
:10004000AB010008AB010008AB010008AB010008E0
:10005000AB010008AB010008AB010008AB010008D0
:10006000AB010008AB010008AB010008AB010008C0
:10007000AB010008AB010008AB010008AB010008B0
:10008000AB010008AB010008AB010008AB010008A0
:10009000AB010008AB010008AB010008AB01000890
:1000A000AB010008AB010008AB010008AB01000880
:1000B000AB010008AB010008AB010008AB01000870
:1000C000AB010008AB010008AB010008AB01000860
:1000D000AB010008AB010008AB010008AB01000850
:1000E000AB010008AB010008AB01000800F002F80A
:1000F00000F03FF80AA090E8000C82448344AAF183
:100100000107DA4501D100F034F8AFF2090EBAE880
:100110000F0013F0010F18BFFB1A43F0010318473B
:10012000A4180000C4180000103A24BF78C878C191
:10013000FAD8520724BF30C830C144BF04680C60ED
:10014000704700000023002400250026103A28BF35
:1001500078C1FBD8520728BF30C148BF0B60704739
:10016000642900F07D80002070471FB51FBD10B5C9
:1001700010BD00F052F91146FFF7F7FF01F048FB00
:1001800000F070F903B4FFF7F2FF03BC00F078F958
:100190000948804709480047FEE7FEE7FEE7FEE71B
:1001A000FEE7FEE7FEE7FEE7FEE7FEE70448054957
:1001B000054A064B70470000CF160008ED00000806
:1001C000600200206008002060040020600400201D
:1001D0000FB41CB5074B06AA7B44694600900598EE
:1001E00000F003F90020694600F012F91CBC5DF82C
:1001F00014FB0000350200002DE9F0410E460446D4
:10020000002020622046E168884730B3252805D0C9
:10021000D4E901219047206A401CF2E7E1682046BA
:1002200000278847050018D0A5F14100192802D8F9
:1002300020354FF400673246294620462760FFF7F5
:100240008FFF40B1012804D0F61D26F007060836BE
:10025000D8E7361DD6E72846DAE7206ABDE8F08100
:100260002DE9F0410646002410687529314616A58F
:1002700010D0AFF30080002802DA404213A507E057
:1002800031688A0701D512A502E0490704D511A5F6
:10029000012401E0AFF3008000210A2206F12407C7
:1002A00009E0B0FBF2FCB0FBF2F302FB1C003030C3
:1002B00078541846491C0028F3D123462A46304674
:1002C000BDE8F04100F032B8000000002D00000051
:1002D0002B000000200000004FF0000200B5134684
:1002E00094469646203922BFA0E80C50A0E80C5056
:1002F000B1F12001BFF4F7AF090728BFA0E80C5007
:1003000048BF0CC05DF804EB890028BF40F8042BFF
:1003100008BF704748BF20F8022B11F0804F18BF6C
:1003200000F8012B70477047704770472DE9F04780
:100330000D4699469246044600F124080168880655
:1003400004D5E06921F01001216000E00120A842FD
:1003500001DD471B00E00027A1697A1902EB0900C3
:10036000081AA0612078C00602D42046AFF30080AE
:10037000002608E0D4E901211AF806009047206A17
:10038000401C761C20624E45F4DB2078C0060AD55E
:100390002046AFF3008006E0D4E9012130209047E9
:1003A000206A401C2062381EA7F10107F4DC07E038
:1003B000D4E9012118F805009047206A401C20620A
:1003C000281EA5F10105F3DC2046AFF3008020785C
:1003D000000602D50220BDE8F0870120FBE70000FF
:1003E00001694A1C02610878704700B58FB0CDE9F9
:1003F00001310021059105497944CDE903101146E9
:100400006846FFF7F9FE0FB000BD0000E5FFFFFFF3
:100410000A6802F8010B0A607047754600F02CF874
:10042000AE4605006946534620F00700854618B0E1
:1004300020B5FFF7BBFEBDE820404FF000064FF0AF
:1004400000074FF000084FF0000B21F00701AC4609
:10045000ACE8C009ACE8C009ACE8C009ACE8C00928
:100460008D46704710B50446AFF300802046BDE8C6
:100470001040FFF787BE00000048704700020020D0
:1004800001491820ABBEFEE7260002007047FEE7D8
:100490007047000070B5044600F0FEF80546601C89
:1004A00002D004480078044400F0F6F8401BA04253
:1004B000FAD370BD100000202DE9F84FDFF8B89195
:1004C000002409F1040A0AF1040B23460F270BF15B
:1004D000040EC9E00125A5402A40AA427DD1674EFD
:1004E000D1F804C0ACEB0608B44532D014DCBCF142
:1004F000030F3AD009DCBCF1000F2AD0BCF1010F88
:100500001CD0BCF1020F31D11DE0BCF1110F17D08E
:10051000BCF1120F2AD119E0B8F5881F19D006DCFA
:10052000B8F5803F15D0B8F5801F1FD111E0B8F5A0
:10053000001F0ED0B8F5041F18D10AE0CB6815E0F3
:10054000CB681B1D12E0CB6808330FE0CB680C337F
:100550000CE08B682BB1012B4FF0080303D04561F1
:1005600004E0042302E0056100E00023FF2A01D833
:10057000064601E000F104064FEA840501D9A5F121
:100580002005D6F8008007FA05FC28EA0C0803FAD3
:1005900005F548EA0508C6F800804D68ED0062D50B
:1005A000374DAE6946F00106AE61AD6924F0030631
:1005B00005F001050095334D06EB050CDCF80850FD
:1005C000A607360F07FA06F825EA0805DFF8B8800F
:1005D000404503D14FF0000817E044E0DFF8AC805D
:1005E000404502D14FF001080FE0DFF8A4804045FC
:1005F00002D14FF0020808E0DFF89880404502D1B0
:100600004FF0030801E04FF0040808FA06F848EA42
:100610000508CCF808804D68D9F80060ED034D4618
:1006200001D5164300E096432E604D68DAF800606D
:10063000AD03554601D5164300E096432E604D6844
:10064000DBF80060ED025D4601D5164300E09643FD
:100650002E604D68DEF80060AD02754601D5164388
:1006600000E096432E60641C0D682A46E5407FF446
:1006700031AFBDE8F88F0000000401400000111008
:10068000001002400000014000080140000C014041
:1006900000100140001401400148806870470000CC
:1006A0001000002002488168027811448160704780
:1006B00010000020074810B5016841F010010160EA
:1006C000032000F067F80F2000F006F800F024F88F
:1006D000002010BD0020024070B50D4D04464FF4BF
:1006E0007A712878B1FBF0F00A490968B1FBF0F0A3
:1006F00000F091FD48B9102C07D200222146501E6F
:1007000000F028F800206C6070BD012070BD000072
:10071000100000201C0000200C4808B5816941F041
:1007200001018161816901F001010091C16941F01C
:100730008051C161C06900F0805000900448416858
:1007400021F0E06141F00071416008BD00100240FD
:1007500000000140F0B40E4B1B680C46C3F30223AB
:10076000C3F10705042D00D90425191D072901D25D
:10077000002300E0DB1E012606FA05F1491E214098
:1007800099409E40761E16403143F0BC01F02FB8D0
:100790000CED00E0064900F0070208684FF6FF0381
:1007A000184040EA0220034A1043086070470000E6
:1007B0000CED00E00000FA050149012008627047D5
:1007C00000000E4210B529A401461DCC86B08DE86C
:1007D0001D002AA02A4C006804900020012923D083
:1007E00002293AD010291DD161682268D20119D599
:1007F000C1F38342C9031DF8020009D5616804AA48
:10080000C1F34041515C1F4AB2FBF1F1484301E0A2
:100810001D4948436168490204D440005FF0030168
:10082000B0FBF1F006B010BD226AC2F3012101292C
:1008300003D1920701D5C803F4E7022905D1626A02
:10084000920702D549F64040ECE70329EAD1216836
:100850008903E7D54FF22440E4E700F033F96168FB
:10086000C1F38131491C4900DAE7000002030405A5
:10087000060708090A0B0C0D0E0F101001020000EC
:100880000010024000127A0000093D002DE9F843F3
:1008900005460078354CC00754D0E0690026C000FA
:1008A00008D4E06940F08050E061E069012600F082
:1008B000805000902E480168C90512D40168804616
:1008C00041F480710160FFF7E7FE074605E000BFD5
:1008D000FFF7E2FEC01B642823D8D8F80000C0054B
:1008E000F6D5206A10F4407021D0A98801F4407137
:1008F00081421CD0206A1F49012220F440700A6006
:1009000000220A602062C00711D0FFF7C5FE07462B
:1009100041F2883808E000BFFFF7BEFEC11B414529
:1009200002D90320BDE8F883206A8007F4D5206A45
:10093000696820F44070084320621EB1E06920F02D
:100940008050E0612878800705D56068A96820F4A8
:100950004040084360602878C00605D56068E968B3
:1009600020F48000084360600020DBE700100240B4
:1009700000700040400442422DE9F0470F46050058
:1009800061D0434E306800F00700B84209D23068A9
:1009900020F0070038433060306800F00700B842AC
:1009A00051D128683B4C810712D5400703D56068B8
:1009B00040F4E06060602878000703D5606840F488
:1009C000605060606068A96820F0F00008436060D3
:1009D0002878C00728D06868012810D0216802282C
:1009E00010D0890700292EDA616821F00301014344
:1009F0006160FFF751FE804641F288390DE02168C1
:100A00008903EFE78901EDE7FFF746FEA0EB080158
:100A1000494502D90320BDE8F0876068696800F0A5
:100A20000C00B0EB810FEFD1306800F00700B84246
:100A30000BD9306820F0070038433060306800F090
:100A40000700B84201D00120E5E72878400705D526
:100A50006068E96820F4E060084360602878000777
:100A600006D56068296920F4605040EAC1006060E2
:100A700000F038F86168084AC1F30311515CC840BE
:100A80000649086006480068FFF726FE0020C2E716
:100A90000020024000100240AC1900081C00002099
:100AA000140000200448054900684968044AC1F35D
:100AB0000221515CC84070471C0000200010024019
:100AC000BC1900080448054900684968044AC1F394
:100AD000C221515CC84070471C0000200010024039
:100AE000BC19000812A185B00FC98DE80F0014A031
:100AF000144A006804905168134801F00C03042B59
:100B000010D0082B0ED1C1F38343C9031DF8030095
:100B10000AD5516804AAC1F34041515C0A4A5043C6
:100B2000B0FBF1F005B0704708494843FAE7000010
:100B300002030405060708090A0B0C0D0E0F10101E
:100B4000010200000010024000127A0000093D007E
:100B50002DE9F84F040070D02078C04DC00749D06F
:100B60006868C0F38100012807D06868C0F381007D
:100B7000022809D16868C00306D52868800339D5E2
:100B800060680028E7D035E06068B0F5803F0BD0A2
:100B900010B1B0F5A02F11D0286820F48030286063
:100BA000286820F4802002E0286840F48030286023
:100BB000606890B1FFF770FD06460AE0286840F4CF
:100BC00080202860F0E700BFFFF766FD801B6428E7
:100BD00073D828688003F7D50CE0FFF75DFD064663
:100BE00005E000BFFFF758FD801B6428F0D8286897
:100BF0008003F7D420789A4E80074FF001094FF018
:100C0000000839D5686810F00C0F07D06868C0F389
:100C10008100022809D16868C00306D428688007CB
:100C200014D52069012808D110E02069B0B1C6F8B8
:100C30000090FFF731FD074605E00AE1FFF72CFDC4
:100C4000C01B0228C4D828688007F7D528686169C6
:100C500020F0F80040EAC10028600DE0C6F80080EE
:100C6000FFF71AFD074604E0FFF716FDC01B022838
:100C700023D828688007F7D4207800072CD5794836
:100C8000A169D9B1C0F80090FFF706FD074604E05E
:100C9000FFF702FDC01B02280FD8686A8007F7D54E
:100CA00071484FF4FA510068B0FBF1F0009000BFBA
:100CB0000098411E0091FAD20EE080E0C0F800805A
:100CC000FFF7EAFC074604E0FFF7E6FCC01B02283A
:100CD00075D8686A8007F7D42078400760D5E8693E
:100CE0000027C00008D4E86940F08050E861E86956
:100CF000012700F0805000905C480168C90513D4BA
:100D00000168834641F480710160FFF7C5FC8246AB
:100D100006E000BFFFF7C0FCA0EB0A0064284ED835
:100D2000DBF80000C005F5D5E06801280AD008B15D
:100D3000052813D0286A20F001002862286A20F0D4
:100D4000040002E0286A40F001002862E06841F2F5
:100D5000883B98B1FFF7A0FC82460BE0286A40F080
:100D600004002862EEE700BFFFF796FCA0EB0A0143
:100D700059455AD8286A8007F6D50CE0FFF78CFC55
:100D8000824605E0FFF788FCA0EB0A0159454CD8E4
:100D9000286A8007F6D41FB1E86920F08050E86126
:100DA000E06988B36968C1F38101022944D002284F
:100DB000C6F8608004D0FFF76FFC044638E034E0EA
:100DC000FFF76AFC074604E0FFF766FCC01B022839
:100DD0002BD828688001F7D4206AB0F5803F05D170
:100DE0006868A16820F4003008436860D4E908010D
:100DF0000843696821F4741108436860C6F860907C
:100E0000FFF74AFC044606E025E000BFFFF744FC7C
:100E1000001B022809D828688001F7D51BE000BF15
:100E2000FFF73AFC001B022802D90320BDE8F88F27
:100E300028688001F4D40EE00128F7D06868226A9F
:100E400000F48031914204D1616A00F4701088424C
:100E500001D00120EAE70020E8E70000001002408E
:100E600000004242800442421C000020007000400A
:100E7000F8B505004FF0000016460C46009006D06D
:100E80002CB100226946284600F019F808B101206B
:100E9000F8BD287B2070E87BE070697B6170A97BDE
:100EA000A17056B100F0D8FAE070607800F0D4FA82
:100EB0006070A07800F0D0FAA0700020F8BD2DE995
:100EC000F04791460C465FEA00084AD084B3D8F850
:100ED00000004068400744D4404600F05BFB4FF4FC
:100EE00061620546B0FBF2F1B0FBF2F302FB135076
:100EF0003C23B0FBF3F0B5FBF2F6607002FB16503A
:100F0000B0FBF3F203FB1200A070182931D31820B4
:100F1000B1FBF0F7B1FBF0F200FB1210207040467D
:100F200000F031FB411C04D0A84202D9461B02E06C
:100F300017E04FF0FF36A7EB071000EB4000C0EBC7
:100F4000001005EBC0152946404600F072FB40B981
:100F5000701C01D0711900E03146404600F055FB8D
:100F600010B10120BDE8F0873946404600F07FFA15
:100F700000E02170B9F1000F0BD0207800F06CFA7E
:100F80002070607800F068FA6070A07800F064FA71
:100F9000A0700020E6E7000070B5040003D0607C7C
:100FA000002610B105E0012070BD2674204600F037
:100FB00043F802206074204600F010F9042578BB45
:100FC000204600F0ABFA58BB2068416821F00701C9
:100FD0004160A06820B11748016821F0010101605B
:100FE0001448001F0168A26821F460711143016078
:100FF0006068411C04D10120FFF7E4FB80B1401E72
:1010000021688A6822F00F0242EA10428A60216851
:10101000CA6860F30F02CA60204600F099FA08B16E
:101020006574C0E7E67301206073A07360740020EC
:1010300070BD0000306C004008B500680849884267
:101040000DD1FFF7B9FB0748C16941F00061C161EB
:10105000C069054900F0006000900120086008BDEB
:1010600000280040001002403C0442422DE9F041BB
:101070000D4604003BD0C5B3207C01283AD04FF088
:10108000010884F8108002206074E87872B300F0E0
:10109000DAF9E073687800F0D6F96073A87800F0A8
:1010A000D2F9A073C2B2617BE07B00F083FA2073B7
:1010B0002870204600F06EFA4FF46161B0FBF1F148
:1010C000002518292DD91822B1FBF2F1A1EB01114D
:1010D00001EB4101C1EB011100EBC1163146204685
:1010E00000F0A7FA0427C8B90BE000E004E00120F3
:1010F000BDE8F0810220FBE7E07368786073A878B0
:10110000CFE7204600F03FFA411C0AD0B04208D297
:1011100006490144204600F078FA10B1677425743E
:10112000E5E784F8118025740020E1E78051010093
:101130002DE9F0410D46040024D01DB3207C012888
:1011400023D04FF0010884F81080022060742878C2
:10115000EAB100F078F94FF4616100FB01F66878BC
:1011600000F071F9C0EB001006EB8006A87800F0E3
:101170006AF935182946204600F05BFA0026042754
:1011800010BB0FE00120BDE8F0810220FBE74FF427
:10119000616148436978C1EB011100EB8100A978D6
:1011A0004518E7E72068416821F0050141602046C5
:1011B00000F0E9F9411C0AD0A84208D206490144CE
:1011C000204600F022FA10B167742674DAE784F83A
:1011D000118026740020D6E78051010070B504000C
:1011E0000AD02068416821F008014160FFF754FAF5
:1011F00005464FF47A7608E0012070BDFFF74CFAFF
:10120000401BB04201D9032070BD20684068000730
:10121000F4D5002070BD10B5401EB0F1807F01D321
:10122000012010BD4FF0E02460610F21601700F035
:10123000DEFA0020A06107202061002010BD70B5FB
:10124000040004D094F83D00002510B106E0012010
:1012500070BD84F83C50204600F022F8242084F829
:101260003D002068C16821F40051C160204600F0B3
:101270002FFA2068016921F49041016120684169D9
:1012800021F02A0141612068C16841F40051C16028
:101290002564202084F83D0084F83E00002070BDC5
:1012A00030B585B000240094019402940394006842
:1012B0001449884224D11448816941F480418161F4
:1012C000816901F480410491816941F004018161E7
:1012D00080690E4D00F0040004904FF400700090FF
:1012E000022001900320039069462846FFF7E4F8A6
:1012F0002815CDE90004694628460294FFF7DCF87A
:1013000005B030BD00380140001002400008014027
:101310002DE9F843044690F83D001F4616460D4659
:1013200020284CD1C5B1BEB194F83C00012846D06C
:10133000012084F83C004FF00008C4F840802120D0
:1013400084F83D00FFF7A8F9A6848146E684A068EA
:10135000B0F5805F03D004E00120BDE8F883206988
:1013600028B12E465FF0000584F83C800EE0002690
:10137000FAE78021204600F007FAA0B9AEB116F8CE
:10138000010B21684860E08C401EE084E08C4B46F5
:101390004FF0000200970028EBD14FF040012046AB
:1013A00000F0F2F930B10320D7E735F8020BC0F3B3
:1013B0000800E6E7202084F83D000020CDE7022069
:1013C000CBE7FEE71CB50020019000901B481A49AE
:1013D00001604FF0FF3141604FF480718160FFF791
:1013E000DBFD08B172B6FEE702208DF8040037205D
:1013F0008DF8050040208DF80600012201A90F4854
:10140000FFF796FE08B172B6FEE701208DF80000E6
:1014100010208DF8010017208DF8020022208DF891
:101420000300012269460548FFF720FE002801D08D
:1014300072B6FEE71CBD000000280040200000201E
:10144000FEE7FEE77047010901EB810100F00F00A4
:1014500000EB4100C0B27047002102E00A38C0B280
:10146000491C0A28FAD2090740EA116070472DE9A1
:10147000F04104460025C07B627BA37B42E0012A49
:1014800016D0032A14D0052A12D0072A10D0082A11
:101490000ED00A2A0CD00C2A0AD0042A10D0062A10
:1014A0000ED0092A0CD00B2A0AD0022A0DD028E02F
:1014B0001F2B0CD30C2A05D101221346401C20E01F
:1014C0001E2B04D30123521C1BE01C2B02D203F160
:1014D000010316E011D183B29E0710D16426B3FB3D
:1014E000F6F706FB173636B94FF4C876B3FBF6F7B6
:1014F00006FB17331BB91D2303E01D2B01D103226B
:1015000001236D1C8D42BAD3D1B2E0736173DAB29C
:10151000A27300F04FF82073BDE8F08170B5044667
:10152000FFF7BAF805464FF47A7606E0FFF7B4F80D
:10153000401BB04201D9032070BD2068406880067E
:10154000F4D52068416841F010014160002070BD71
:1015500070B504460068416821F010014160FFF752
:101560009BF805464FF47A7607E000BFFFF794F842
:10157000401BB04201D9032070BD2068406880063E
:10158000F4D5002070BD0168086A496A89B241EA51
:1015900000407047006881698AB2C1698BB2816975
:1015A00089B28A4203D0C06961F31F40704743EAA1
:1015B00002407047F0B56424C1EBC1030927A500C0
:1015C000072603EB01130329B3FBF7F100F5FA60DB
:1015D000114401440AD2401EB0FBF4F201EB900129
:1015E000B0FBF5F0891A0844001D08E0B0FBF4F2E6
:1015F00001EB9001B0FBF5F0891A0844801CB0FBA8
:10160000F6F106FB1100C0B2F0BD70B50D460646FE
:101610000024FFF783FF48B93168280C086231685D
:10162000A8B248623046FFF793FF00B1012420467C
:1016300070BD70B50D4606460024FFF76FFF48B930
:101640003168280C88613168A8B2C8613046FFF75C
:101650007FFF00B10124204670BD7047FFF722B81C
:1016600030B593B028216846FEF736FE14210AA84B
:10167000FEF732FE002401250F940A20009010206E
:1016800010941194CDE90450CDE9065412946846A3
:10169000FFF75EFA08B172B6FEE70F20CDE90A0443
:1016A0000C940D9400210AA80E94FFF765F908B177
:1016B00072B6FEE74FF40070CDE90F500FA8FFF7A8
:1016C000E5F8002801D072B6FEE713B030BD7047D0
:1016D00070B5044600680169E26821F44051114385
:1016E00001612169A0680843616908432168CA68EB
:1016F00041F20C639A430243CA6020684169A269BF
:1017000021F44071114341611E492068884202D191
:10171000FFF7D8F901E0FFF7C5F900EBC00101EBD5
:101720000012606864218000B2FBF0F3B3FBF1F3B8
:101730006FF018067343B2FBF0F5B2FBF0F605EB61
:101740008305322303EB0515B5FBF1F5B6FBF1F686
:1017500005F0F00505EB0615B2FBF0F6B2FBF0F074
:10176000B0FBF1F06FF01802504306EB800003EB82
:101770000010B0FBF1F0216800F00F0028448860F1
:1017800070BD0000003801402DE9F0419846174631
:101790000E460446069D1DE0681C1BD02DB1FEF7C9
:1017A0007BFFA0EB0800A84214D92068C16821F48F
:1017B000D071C1602068416921F0010141612020A0
:1017C00084F83D0084F83E00002084F83C000320AB
:1017D000BDE8F0812068006836EA000004D00020EF
:1017E000B842D9D00020F3E70120F9E7FEE7090766
:1017F000090E002804DB00F1E02080F80014704797
:1018000000F00F0000F1E02080F8141D7047000088
:1018100008B5FEF74FFFFFF723FF4F48816941F0FE
:1018200010018161816901F010010091816941F02D
:1018300020018161816901F020010091816941F0FD
:1018400004018161806900F004000090FFF7BAFD97
:10185000434842490C2401604FF416514160002175
:101860008160C160C0E904148161C161FFF7E7FCD8
:1018700008B172B6FEE73B484FF47A76451C047017
:10188000041D384936480022491C1438FFF717FB5D
:10189000344933480022091D1438FFF7E9FAA278C9
:1018A00031A13448FEF794FC3248627832A11E30F0
:1018B000FEF78EFC2F48E27832A13C30FEF788FC20
:1018C00027482A7831A14430FEF782FC24486A7800
:1018D00030A1A830FEF77CFC2648AA7830A16438F5
:1018E000FEF776FC1F4933460F2208311C48FFF7EC
:1018F0000FFD33461E221F491948FFF709FD1D49F8
:1019000033461E221E311648FFF702FD19493346A1
:101910001E223C311248FFF7FBFC1149334664227A
:1019200044310F48FFF7F4FC0D4933466422A831D7
:101930000B48FFF7EDFC0F49334664226439084831
:10194000FFF7E6FC3046FEF7A5FD334601220549C8
:101950000348FFF7DDFC94E7001002400038014027
:1019600034000020000000204E67617920256409C2
:1019700000000000A40100205468616E6720256407
:10198000090000004E616D202564090047696F2041
:101990002564090050687574202564090000000062
:1019A00047696179202564090000000000000000FB
:1019B00000000000010203040607080900000000FF
:1019C00001020304E41900080000002020000000C8
:1019D00028010008041A0008200000204008000028
:1019E00044010008000000000000000048616E6F24
:1019F000692C090001000000100000000000000038
:041A00000024F400CA
:04000005080000ED02
:00000001FF
